:020000040800F2
:100000000065002029030008413C00085B2E000821
:100010003D3C000863060008E56900080000000098
:10002000000000000000000000000000690200085D
:10003000F907000800000000C5020008713F000831
:100040004303000843030008430300084303000878
:100050004303000843030008430300084303000868
:100060004303000843030008430300084303000858
:100070004303000843030008430300084303000848
:1000800043030008430300084303000879060008FF
:1000900069060008430300084303000843030008FF
:1000A0004303000843030008430300084303000818
:1000B0004303000843030008430300084303000808
:1000C00043030008430300084303000843030008F8
:1000D00043030008430300084303000843030008E8
:1000E00043030008430300084303000843030008D8
:1000F000430300086D400008430300084303000861
:1001000043030008430300084303000843030008B7
:1001100043030008430300084303000843030008A7
:100120004303000843030008430300084303000897
:10013000430300084303000843030008990600082E
:10014000430300088906000843030008453C0008F3
:100150004303000843030008430300084303000867
:100160004303000843030008430300084303000857
:100170004303000843030008430300080000000095
:10018000430300084303000800F002F800F05CF8A5
:100190000AA090E8000C82448344AAF10107DA45E2
:1001A00001D100F051F8AFF2090EBAE80F0013F0D8
:1001B000010F18BFFB1A43F00103184734850000F4
:1001C000548500000A444FF0000C10F8013B13F076
:1001D000070408BF10F8014B1D1108BF10F8015BA0
:1001E000641E05D010F8016B641E01F8016BF9D193
:1001F00013F0080F1EBF10F8014BAD1C0C1B09D1EA
:100200006D1E58BF01F801CBFAD505E014F8016B5B
:1002100001F8016B6D1EF9D59142D6D370470000ED
:100220000023002400250026103A28BF78C1FBD8FF
:10023000520728BF30C148BF0B6070471FB508F098
:1002400031FA1FBD10B510BD00F0D2F91146FFF70D
:10025000F5FF06F0E5FB00F0F0F903B4FFF7F2FF5D
:1002600003BC00F0F7F900002C4B19680868B0E8EF
:10027000F04F80F30988BFF36F8F4FF0000080F3D9
:10028000118870470000000008480068006880F38B
:1002900008884FF0000080F3148862B661B6BFF39F
:1002A0004F8FBFF36F8F00DF00BF00BF08ED00E08E
:1002B000DFF80C00016841F470010160704700BF75
:1002C00088ED00E0EFF30980BFF36F8F134B1A68DE
:1002D0001EF0100F08BF20ED108A20E9F04F1060CB
:1002E00009B44FF0500080F31188BFF34F8FBFF374
:1002F0006F8F07F049FA4FF0000080F3118809BCB6
:1003000019680868B0E8F04F1EF0100F08BFB0EC95
:10031000108A80F30988BFF36F8F70476001002057
:10032000EFF30580704700000948804709480047FF
:10033000FEE7FEE7FEE7FEE7FEE7FEE7FEE7FEE795
:10034000FEE7FEE704480549054A064B70470000F2
:100350005940000889010008005F00200065002066
:10036000006100200061002053EA020C00F0698067
:100370002DE9F04B4FF00006002B1FBFB3FA83F5B9
:1003800003FA05F424FA05F65E4012BF1643B2FAEA
:1003900082F502FA05F4C5F120051EBF22FA05FC1C
:1003A00044EA0C04203556EA044C4FEA144418BFC2
:1003B000641C4FF000084FF00009904271EB030CF1
:1003C00039D3002919BFB1FA81F701FA07F6B0FA5B
:1003D00080F700FA07F6C7F120071EBF20FA07FCD6
:1003E00046EA0C062037B6FBF4FCA7EB0507103FE6
:1003F00007F01F0BCBF120060CFA0BFB2CFA06F6CC
:1004000044BFB3460026202FA4BF5E464FF0000B2A
:100410005BEA060C08BF4FF0010B19EB0B09ABFBB5
:10042000027C48EB0608C01B06FB02CC0BFB03CC8E
:1004300071EB0C01C1E70B46024641464846BDE858
:10044000F08B13B54FF000004FF00001AFF30080C8
:10045000BDE81C40704740EA010310B59B070FD16F
:10046000042A0DD310C808C9121F9C42F8D020BA24
:1004700019BA884201D9012010BD4FF0FF3010BDDC
:100480001AB1D30703D0521C07E0002010BD10F8AA
:10049000013B11F8014B1B1B07D110F8013B11F870
:1004A000014B1B1B01D1921EF1D1184610BD032A2E
:1004B00040F2308010F0030C00F0158011F8013B81
:1004C000BCF1020F624498BF11F801CB00F8013B68
:1004D00038BF11F8013BA2F1040298BF00F801CB2C
:1004E00038BF00F8013B11F0030300F02580083A03
:1004F000C0F0088051F8043B083A51F804CBA0E85A
:100500000810F5E7121D5CBF51F8043B40F8043BAE
:10051000AFF30080D20724BF11F8013B11F801CBE3
:1005200048BF11F8012B24BF00F8013B00F801CBB4
:1005300048BF00F8012B704710B5203AC0F00B807F
:10054000B1E81850203AA0E81850B1E81850A0E8D7
:100550001850BFF4F5AF5FEA027C24BFB1E8185031
:10056000A0E8185044BF18C918C0BDE810405FEAA1
:10057000827C24BF51F8043B40F8043B08BF70471D
:10058000D20728BF31F8023B48BF11F8012B28BF22
:1005900020F8023B48BF00F8012B70474FF00002E3
:1005A00000B5134694469646203922BFA0E80C5069
:1005B000A0E80C50B1F12001BFF4F7AF090728BF44
:1005C000A0E80C5048BF0CC05DF804EB890028BFC0
:1005D00040F8042B08BF704748BF20F8022B11F0E9
:1005E000804F18BF00F8012B704770477047704765
:1005F000754600F02BF8AE4605006946534620F0DC
:100600000700854618B020B5FFF79CFEBDE82040E6
:100610004FF000064FF000074FF000084FF0000BBE
:1006200021F00701AC46ACE8C009ACE8C009ACE871
:10063000C009ACE8C0098D46704710B50446AFF359
:1006400000802046BDE81040FFF707BE0048704715
:10065000A05E002001491820ABBEFEE72600020084
:10066000704700BFFEE7000010B5024800F005FB30
:1006700010BD00003805002010B5024800F0FDFA5A
:1006800010BD00003805002010B5024800F0F5FA52
:1006900010BD00006005002010B5024800F0EDFA22
:1006A00010BD00006005002030B587B004460D463F
:1006B0001C216846FFF772FF094A2068904201D06A
:1006C000012000E0002001462B466A46204600F04B
:1006D0000AFA029810B9009807B030BD0198FBE7FC
:1006E000006400400346042B15D007DC7BB1012BCE
:1006F0000ED0022B0DD0032B12D10BE0202B0BD0F0
:10070000212B0AD0222B09D0232B09D107E008E0A6
:1007100007E006E005E004E003E002E001E000E0BD
:1007200000BF00BF002070470020704710B50022B6
:100730000449054803F0BDFF0449034803F0AAFF3C
:10074000002010BDAC120020D0050020AC0A002013
:1007500070B504460D462946204600F003F80020F7
:1007600070BD000038B505460C4600236A46214698
:100770000748006807F060FA009838B14FF08050E1
:1007800004490860BFF34F8FBFF36F8F38BD00007F
:10079000B000002004ED00E010B503460C46002137
:1007A000084610BD10B58AB004460020069001200E
:1007B0000790002000900190029003900E20099075
:1007C0000B492068884202D1002005900490094915
:1007D0002068884203D10E2005900120049001205A
:1007E00008906946204600F0EDF80AB010BD000000
:1007F0000064004000680040704700000548006841
:10080000401C0449086008460068012801D10249DB
:1008100008707047DC000020E000002070B50A4836
:100820000468001D0568001D0668344454B10822A0
:100830000649204603F032F90422044910312846C3
:1008400003F02CF970BD0000107AFF1F2201002078
:1008500010B5024692F82030012B01D0022B06D1B0
:1008600010684069084314686061002010BD506A38
:1008700040F4802050620120F8E7F0B504460D46B0
:100880001E4694F8207020688368A86800B900E0CC
:1008900000BF012F01D0022F7DD103F0806030B95D
:1008A00003F0006018B903F0805000287ED0C3F335
:1008B0000161012088403060A86860B9B5F800C0C7
:1008C000E86840EA4C5C206800F5C07000EB01105D
:1008D000C0F800C00FE0D5E901C040EACC00D5F86F
:1008E0000CC040EA0C00D4F800C00CF5C07C0CEB46
:1008F000011CCCF80000D5F810C0206800F5C070CD
:1009000000EB0110C0F804C0287D01280ED120683A
:1009100000F5C07000EB0110406840F4807C206856
:1009200000F5C07000EB0110C0F804C0D0790006DB
:1009300092F806C040EA0C4092F805C040EA0C204C
:1009400092F804C040EA0C00D4F800C00CF5C07C5A
:100950000CEB011CCCF80C00D078000692F802C019
:1009600040EA0C4092F801C040EA0C2092F800C026
:1009700040EA0C00D4F800C00CF5C07C0CEB011C64
:10098000CCF80800206800F5C07000EB011000688A
:1009900040F0010C01E00FE008E0206800F5C070B5
:1009A00000EB0110C0F800C00020F0BD606A40F408
:1009B000001060620120F8E7606A40F48020606205
:1009C0000120F2E7F0B504460A4694F82050012DC4
:1009D00001D0022D7ED1424901F50071086840F036
:1009E00001000860086820F47C5008600868566AB6
:1009F00040EA06200860107D00F01F06012000FA82
:100A000006F3C8699843C861A1F50071D069C8B9F7
:100A1000D1F80C029843C1F80C02908880B29689F4
:100A200040EA064601F51070576940F837601088B3
:100A300080B2168940EA064601F51070576900EB4E
:100A4000C7004660D069012819D1D1F80C021843BB
:100A5000C1F80C02908880B2168840EA064601F57B
:100A60001070576940F83760908980B2168940EA63
:100A7000064601F51070576900EBC70046609069A3
:100A800028B9D1F804029843C1F8040204E0D1F86F
:100A900004021843C1F80402106928B9D1F81402FD
:100AA0009843C1F8140204E0D1F814021843C1F8C5
:100AB0001402106A012804D1D1F81C021843C1F8AD
:100AC0001C02D1F8000220F00100C1F80002002051
:100AD000F0BDFFE7606A40F4802060620120F7E724
:100AE00000640040704770B5044694F82050012D12
:100AF00001D0022D7DD151B92068C06800F00300FB
:100B000080B9606A40F400106062012070BD206806
:100B1000006900F0030028B9606A40F400106062C8
:100B20000120F3E7206800F5D87000EB01100068A1
:100B300000F004009060906840B9206800F5D8701B
:100B400000EB01100068400D106007E0206800F520
:100B5000D87000EB01100068C0085060206800F5F4
:100B6000D87000EB0110006800F00200D06020682F
:100B700000F5D87000EB0110406800F00F00082865
:100B800002D30820106108E0206800F5D87000EB5F
:100B90000110406800F00F001061206800F5D87067
:100BA00000EB0110406800F47F40000A906120686B
:100BB00000F5D87000EB01104068000C506120680F
:100BC00000F5D87000EB011080681870206800F5FF
:100BD000D87000EB0110806800F47F40000A587064
:100BE000206800F5D87000EB0110806800F47F00E9
:100BF00000E03CE0000C9870206800F5D87000EB35
:100C000001108068000ED870206800F5D87000EBE5
:100C10000110C0681871206800F5D87000EB011051
:100C2000C06800F47F40000A5871206800F5D87051
:100C300000EB0110C06800F47F00000C9871206880
:100C400000F5D87000EB0110C068000ED87131B902
:100C50002068C06840F020002668F06005E0206849
:100C6000006940F020002668306100204EE7606A8D
:100C700040F480206062012048E72DE9F05F0446DF
:100C80000025206846692068D0F8049020688768AD
:100C90002068D0F80CA02068D0F810B02068D0F8F8
:100CA000188006F00100002855D007F00100C0B1FF
:100CB00001202168886007F0020018B1204600F08A
:100CC000DAFA0EE007F0040010B145F4006508E020
:100CD00007F0080010B145F4805502E0204600F00E
:100CE000C9FA07F48070C8B14FF480702168886039
:100CF00007F4007018B1204600F0BFFA0EE007F4C8
:100D0000806010B145F4005508E007F4006010B1B0
:100D100045F4804502E0204600F0AEFA07F480304A
:100D2000C8B14FF480302168886007F4003018B1F2
:100D3000204600F0A4FA0EE007F4802010B145F43C
:100D4000004508E007F4002010B145F4803502E0CA
:100D5000204600F093FA06F0080038B10AF01000BF
:100D600020B145F4007510202168C86006F0040029
:100D700040B10AF0080028B108202168C860204668
:100D800000F01CFA06F0020038B12068C06800F0DC
:100D9000030010B1204600F013FA06F0400038B10D
:100DA0000BF0100020B145F4806510202168086127
:100DB00006F0200040B10BF0080028B1082021689F
:100DC0000861204600F024FA06F0100038B12068CF
:100DD000006900F0030010B1204600F01AFA06F492
:100DE000003040B109F0100028B11020216848609F
:100DF000204600F00FFA06F4803040B109F00800F8
:100E000028B1082021684860204600F039FA06F42D
:100E1000004088B309F0040078B306F4807020B174
:100E200008F0010008B145F0010506F4007020B19A
:100E300008F0020008B145F0020506F4806020B118
:100E400008F0040008B145F0040506F40060A0B104
:100E500008F0700088B108F07000402817D006DC58
:100E600010280BD020280CD0302819D10CE05028A5
:100E700010D0602814D110E01DE019E045F00805FD
:100E80000FE045F010050CE045F0200509E045F0C5
:100E9000400506E045F0800503E045F4807500E07C
:100EA00000BF00BF2068806920F070002168886161
:100EB0000420216848602DB1606A284360622046A2
:100EC000FFF710FEBDE8F09F70B504460CB9012095
:100ED00070BD94F8200010B9204600F0AFF82068EB
:100EE000006840F001002168086000F0D9FA05466A
:100EF0000DE000F0D5FA401B0A2808D9606A40F4DA
:100F000000306062052084F820000120E0E72068BE
:100F1000406800F001000028EBD02068006820F055
:100F200002002168086000F0BBFA05460DE000F001
:100F3000B7FA401B0A2808D9606A40F400306062A2
:100F4000052084F820000120C2E72068406800F0F6
:100F500002000028EBD1207E012806D1206800681D
:100F600040F080002168086005E02068006820F0FB
:100F7000800021680860607E012806D12068006832
:100F800040F040002168086005E02068006820F01B
:100F9000400021680860A07E012806D12068006812
:100FA00040F020002168086005E02068006820F01B
:100FB000200021680860E07E012806D120680068D2
:100FC00020F010002168086005E02068006840F00B
:100FD000100021680860207F012806D12068006881
:100FE00040F008002168086005E02068006820F0F3
:100FF000080021680860607F012806D12068006829
:1010000040F004002168086005E02068006820F0D6
:10101000040021680860D4E90201084321690843FB
:10102000616908436168491E08432168C86100205E
:101030006062012084F82000002049E710B586B0E6
:101040000446142101A8FFF7A9FA574920688842ED
:101050004AD156480068401C544908600846006858
:1010600001280FD100BF002000905148006840F0D7
:1010700000704F4908600846006800F0007000905A
:1010800000BF00BF00BF0020009049481038006832
:1010900040F002004649103908600846006800F038
:1010A0000200009000BF00BF4FF44070019002208A
:1010B000029000200390032004900920059001A9CC
:1010C0003C4800F0F3F800220521132000F0B0FAAC
:1010D000132000F099FA00220521142000F0A8FA4C
:1010E000142000F091FA5CE033492068884258D11E
:1010F00000BF002000902E48006840F080602C491E
:1011000008600846006800F08060009000BF00BFE3
:1011100026480068401C25490860084600680128E8
:101120000FD100BF002000902148006840F00070FF
:101130001F4908600846006800F00070009000BF7A
:1011400000BF00BF0020009019481038006840F030
:1011500002001749103908600846006800F00200D4
:10116000009000BF00BF602001900220029000208C
:101170000390032004900920059001A90D4800F078
:1011800095F8002205213F2000F052FA3F2000F0A0
:101190003BFA00220521412000F04AFA412000F0EC
:1011A00033FA06B010BD000000640040E8000020E3
:1011B00040380240000402400068004070470000D0
:1011C00010B58AB004460E49206888420BD108AB9E
:1011D00001AA00212046FFF786FC18B908A901A83A
:1011E00002F0C0F80AE007492068884206D108A941
:1011F0000548FFF759FA0549088000BF0AB010BD3D
:10120000006400400068004060050020AC00002041
:1012100070477047704770B5044694F82000012865
:1012200022D1022084F820002068006820F001000C
:101230002168086000F034F905460DE000F030F94F
:10124000401B0A2808D9606A40F40030606205201B
:1012500084F82000012070BD2068406800F0010083
:101260000028EBD16062F6E7606A40F4002060621B
:101270000120F0E77047704770477047704770472C
:101280007047000070B5044600F00AF9064625468E
:10129000681C10B104480078054400BF00F000F954
:1012A000801BA842FAD370BD58010020F8B5024651
:1012B0000B460025002400200021D6E0012606FA76
:1012C00001F51E6806EA0504AC4274D11E7906F0E9
:1012D0000306012E04D01E7906F00306022E13D158
:1012E00090684F000326BE40B0434F00DE68BE400A
:1012F00030439060506801268E40B0431E79C6F39B
:1013000000168E40304350601E7906F00306032E0F
:1013100009D0D0684F000326BE40B0434F009E68FE
:10132000BE403043D0601E7906F00306022E13D172
:10133000CF0802F1200656F827004E07F70E0F26B9
:10134000BE40B0434F07FF0E1E69BE403043CF087A
:1013500002F1200646F8270010684F000326BE4021
:10136000B0431E7906F003064F00BE4030431060C4
:101370005E6806F44036002E76D000BF0026009648
:101380003C4E366846F480463A4F3E603E463668EC
:1013900006F48046009600BF00BF374E8F0856F80F
:1013A00027008E07370F0F26BE40B043334EB242A0
:1013B00002D1002624E057E0314EB24201D101268D
:1013C0001EE0304EB24201D1022619E02E4EB2424A
:1013D00001D1032614E02D4EB24201D104260FE0C4
:1013E0002B4EB24201D105260AE02A4EB24201D16B
:1013F000062605E0284EB24201D1072600E0082665
:101400008F073F0FBE4030431B4E8F0846F8270022
:10141000224E3068A0435E6806F4801606B1204371
:101420001E4E3060361D3068A0435E6806F400161C
:1014300006B12043194E361D3060184E361F3068F5
:10144000A0435E6806F4003606B12043134E361FF3
:101450003060361F3068A0435E6806F4803606B1FF
:1014600020430E4E083E3060491C1029FFF426AF81
:10147000F8BD000044380240083801400000024036
:101480000004024000080240000C0240001002402C
:101490000014024000180240001C0240083C0140B9
:1014A00001480068704700005001002003480068B0
:1014B0000349097808440149086070475001002039
:1014C0005801002010B50D48006840F400700B4929
:1014D00008600846006840F48060086008460068BC
:1014E00040F480700860032000F0E0F80F2000F066
:1014F00007F800F05FF8002010BD0000003C02403B
:101500002DE9F04188B004460027B84600BF00200E
:1015100001902348006840F4807021490860084623
:10152000006800F48070019000BF00BF02A903A80A
:1015300001F064F8069F1FB901F088F8054602E043
:1015400001F084F845001748B5FBF0F0A0F1010860
:1015500015481649086040F2E7311448C160C0F8E8
:101560000480002101618160816101F027FB064652
:1015700096B90E4801F056FB06466EB92D2000F0D4
:1015800043F8102C07D2002221462D2000F050F8FD
:101590000748046000E00126304608B0BDE8F0814D
:1015A0004038024040420F000020004088050020E3
:1015B0005401002008B500BF0020009011480068C9
:1015C00040F480400F4908600846006800F48040FD
:1015D000009000BF00BF00BF00200090081F0068FF
:1015E00040F08050091F08600846006800F08050F5
:1015F000009000BF00BF00220F21901E00F018F8DD
:1016000008BD0000443802400146084600280DDBB2
:1016100000BF00BF00F01F0301229A4043099B0056
:1016200003F1E023C3F8002100BF00BF00BF7047F3
:101630002DE9F05F80460D461646002705F0D4F9E7
:10164000074639462A46334601F00700C0F1070A2B
:10165000BAF1040F02D94FF0040A01E0C0F1070A01
:10166000D14600F1040ABAF1070F02D24FF0000A86
:1016700001E0A0F1030AD4464FF0010A0AFA09FA80
:10168000AAF1010A0AEA020A0AFA0CFA4FF0010B5F
:101690000BFA0CFBABF1010B0BEA030B4AEA0B0450
:1016A0002146404605F0A8F9BDE8F09F00BF00F0D4
:1016B0000702064B19684FF6FF031940044B0B4312
:1016C00043EA0221014B196000BF70470CED00E0B6
:1016D0000000FA057047024610684162002070471A
:1016E000F0B5034615461868446A21B944EA054036
:1016F0001E68B06219E01868806A04EB104400228A
:1017000008E0186800F5827050F8220004EB1044DD
:10171000501CC2B2481E9042F3D844EA05471868EC
:1017200000F582704E1E40F826700020F0BD10B506
:101730000446D4F8E00403F0BEFC10BD70B50446C6
:101740000D4605EBC50304F1140101EB8301CA68E2
:101750002946D4F8E00403F0A1FB70BD70B504463F
:101760000D4605EBC50304F5157101EB8301CA684D
:101770002946D4F8E00403F019FC70BD10B5044606
:10178000D4F8E00403F09AFC10BD2DE9F0410446C2
:101790000D4605F08000802808D105F00F0000EB11
:1017A000C00104F1140000EB810607E005F00F0012
:1017B00000EBC00104F5157000EB8106314620688E
:1017C00004F0D2FE07463846BDE8F08170B5044605
:1017D0000E4606F0800080280AD106F00F0000EBCC
:1017E000C00104F1140000EB81050120687009E0DC
:1017F00006F00F0000EBC00104F5157000EB810549
:101800000020687006F00F00287000BF94F8940460
:10181000012801D1022070BD012084F8940400BF8A
:101820002946206804F02EFA00BF002084F89404B2
:1018300000BF00BFEFE770B504460E4606F00F008C
:101840002179884201D9012070BD06F080008028EE
:101850000AD106F00F0000EBC00104F1140000EB08
:1018600081050120687009E006F00F0000EBC0015F
:1018700004F5157000EB8105002068700020A87049
:1018800006F00F00287000BF94F89404012801D1DD
:101890000220D9E7012084F8940400BF294620687B
:1018A00004F0EEFB00BF002084F8940400BF00BFEA
:1018B000CAE7024601F00F0000EBC00302F5157005
:1018C00000EB8300406970472DE9F04705460E465E
:1018D00090461F464FF0000906F0800080280AD18C
:1018E00006F00F0000EBC00105F1140000EB8104CD
:1018F0000120607009E006F00F0000EBC00105F563
:10190000157000EB81040020607006F00F0020705D
:10191000C8F30A00A0602771607808B1207860835E
:10192000022F01D10020607100BF95F894040128B6
:1019300002D10220BDE8F087012085F8940400BFA1
:101940002146286804F0AAF800BF002085F8940416
:1019500000BF4846EEE72DE9F04105460E46174622
:10196000984606F00F0000EBC00105F5157000EB7E
:101970008104E760C4F8108000206061607006F0A8
:101980000F002070A879012800D1E761AA792146CB
:10199000286804F009FC0020BDE8F08170B5044619
:1019A0000D4605F00F002179884201D9012070BD54
:1019B00005F0800080280AD105F00F0000EBC0017F
:1019C00004F1140000EB81060120707007E005EBC4
:1019D000C50104F5157000EB810600207070012030
:1019E000B07005F00F00307000BF94F89404012827
:1019F00001D10220DBE7012084F8940400BF3146C6
:101A0000206804F084FB05F00F0028B9A17904F2E6
:101A10009C42206804F0FCFA00BF002084F8940483
:101A200000BF00BFC3E72DE9F04105460E4617464B
:101A3000984606F00F0000EBC00105F1140000EB22
:101A40008104E760C4F810800020606101206070AC
:101A500006F00F002070A879012800D1E761AA796B
:101A60002146286804F0A0FB0020BDE8F0812DE9A4
:101A7000FE4F0446D4F800B05E46206804F056FEDF
:101A8000002874D1206804F090FE08B9BDE8FE8FEC
:101A900040F608008059C0F30D20C4F8D404206833
:101AA00004F083FE00F00200022805D1206840699E
:101AB00000F0020021684861206804F076FE00F022
:101AC0001000102845D12068806920F0100021689E
:101AD0008861DBF8209009F00F0000EBC00104F5ED
:101AE000157000EB810AC9F3434002281AD147F66A
:101AF000F07009EA000030B3C9F30A125846DAF868
:101B00000C1004F057FEC9F30A11DAF80C0008446F
:101B1000CAF80C00C9F30A11DAF814000844CAF82C
:101B2000140010E0C9F3434006280CD1082204F247
:101B30009C41584604F03EFEC9F30A11DAF814003D
:101B40000844CAF814002068806940F01000216839
:101B50008861206804F029FE00F40020B0F5002F11
:101B60007BD10025206804F0F0FD029072E0E1E2F4
:101B7000029800F00100002868D0E9B2206804F063
:101B800007FE804608F0010048B1012106F53060EB
:101B900000EB451081602946204602F08DF808F0E0
:101BA0000800082809D1082106F5306000EB45102F
:101BB00081602946204602F04DF808F010001028F8
:101BC00005D1102106F5306000EB4510816008F06A
:101BD0000200022824D1DBF8140000F080008028E5
:101BE00007D140F60400805940F4806140F60400BB
:101BF000815105EBC50104F5157000EB810A9AF8D7
:101C00000300012806D100208AF80300E9B220462B
:101C100000F09BFA022106F5306000EB4510816070
:101C200008F02000202805D1202106F5306000EBC7
:101C30004510816008F40050B0F5005F06D14FF404
:101C4000005106F5306000EB451081606D1C029874
:101C500040080290029800288AD1206804F0A5FD6F
:101C600000F48020B0F5802F7DD1206804F063FD62
:101C7000029000259AE0029800F00100002873D03D
:101C8000E9B2206804F06BFD804608F00100F0B373
:101C900005F00F0101208840019040F63400815981
:101CA000019821EA000040F634018851012106F52F
:101CB000106000EB45108160A079012824D105EB6C
:101CC000C50104F1140000EB810005EBC502C168F9
:101CD00004F1140000EB82008068014405EBC502AA
:101CE00004F1140000EB8200C1606DB905EBC50181
:101CF00004F1140000EB8100006928B904F29C4251
:101D00000121206804F084F9E9B2204600E001E0F6
:101D1000FFF714FD08F00800082805D1082106F592
:101D2000106000EB4510816008F01000102805D10C
:101D3000102106F5106000EB4510816008F04000AE
:101D4000402805D1402106F5106000EB4510816068
:101D500008F0020002281DD12946584604F0A9FCCB
:101D600005EBC50101E025E01CE004F1140000EBE7
:101D7000810A9AF80300012806D100208AF803009E
:101D8000E9B2204600F0D8F9022106F5106000EB18
:101D90004510816008F08000802803D12946204644
:101DA00002F02CF86D1C029840080290029800285E
:101DB0007FF461AF206804F0F8FC00F00040B0F15F
:101DC000004F1CD140F60400805920F0010140F67C
:101DD0000400815194F8CC04012807D1002084F834
:101DE000CC0400212046FFF775FC02E0204600F0FD
:101DF000D1FA2068406900F00040216848612068FD
:101E000004F0D3FC00F40060B0F5006F0ED140F692
:101E10000800805900F0010010B1204600F012FBCC
:101E20002068406900F4006021684861206804F07F
:101E3000BCFC00F48050B0F5805F7ED140F6040019
:101E4000805920F0010140F60400815110212068E2
:101E500004F02FFC002732E04FF67F3106F51060CA
:101E600000EB4710816006F5106000EB471000683A
:101E700020F4001106F5106000EB471001604FF6EA
:101E80007F3106F5306000EB4710816006F5306069
:101E900000EB4710006820F4001106F5306000EBFD
:101EA0004710016006F5306000EB4710006840F015
:101EB000006106F5306000EB471001607F1C20795F
:101EC000B842C9D840F61C00805940F0011140F6D4
:101ED0001C008151E07B70B1D6F8840840F00B0102
:101EE000C6F8841840F64400805940F00B0140F6D3
:101EF000440081510FE040F61400805942F22B015A
:101F0000084340F614018851081F805940F00B0126
:101F10004FF401608151D6F8000820F4FE60C6F845
:101F20000008A17904F29C42206804F071F820684E
:101F3000406900F48050216800E000E048612068BA
:101F400004F033FC00F40050B0F5005F17D12068B6
:101F500003F00CFE206804F0D6FBE07100F070FB8B
:101F60000090E2792068009904F0A6FC204600F079
:101F7000F9F92068406900F4005021684861206840
:101F800004F013FC00F00800082808D1204600F0F7
:101F900008FA2068406900F008002168486120685C
:101FA00004F003FC00F08000802818D1DBF8180052
:101FB00020F08000CBF8180001250DE005EBC501ED
:101FC00004F5157000EB8100C078012803D1E9B257
:101FD0002046FFF7DAFB6D1C2079A842EED8206876
:101FE00004F0E3FB00F48010B0F5801F2DD1012533
:101FF00022E006F5106000EB4510D0F8009005EBEC
:10200000C50104F1140000EB81000079012812D110
:1020100009F00040B0F1004F0DD1012105EBC502E0
:1020200004F1140000EB8200C170E8B240F08001BE
:102030002046FFF7AAFB6D1C2079A842D9D820685A
:10204000406900F4801021684861206804F0ADFB0D
:1020500000F40010B0F5001F44D1012538E006F56A
:10206000306000EB4510D0F8009005EBC50104F599
:10207000157000EB81000079012828D109F000409B
:10208000B0F1004F23D194F8D40400F00100C9F35B
:10209000004188421BD1012105EBC50204F51570F2
:1020A00000EB8200C170DBF8180040F08000CBF834
:1020B0001800DBF8140000F0800040B940F604007E
:1020C000805940F4007140F60400815103E06D1C1A
:1020D0002079A842C3D800BF2068406900F40010EE
:1020E00021684861206804F060FB00F08040B0F196
:1020F000804F08D12046FFF71AFB2068406900F0A6
:10210000804021684861206804F04FFB00F0040023
:1021100004280FD12068D0F8049009F004000428A6
:1021200002D12046FFF72AFB2068406840EA0900F8
:102130002168486000BFA9E470B504460D462946F1
:10214000D4F8E00403F026F870BD70B504460D46DF
:102150002946D4F8E00403F041F870BDF8B5044610
:102160000CB90120F8BD266894F8950428B9002020
:1021700084F89404204600F0A1F8032084F8950424
:10218000B6F1A04F01D10021A171206803F038FF02
:10219000207C8DF8000094E80F0003F0FBFC20B1D8
:1021A000022084F895040120DCE70021206804F077
:1021B00031FB20B1022084F895040120D2E70025EC
:1021C00031E0012105EBC50204F1140000EB8200AF
:1021D000417005EBC50104F1140000F8215005EB36
:1021E000C50100EB81004583002105EBC50204F128
:1021F000140000EB8200017105EBC50204F114002C
:1022000000EB8200816005EBC50204F1140000EBD5
:102210008200C16005EBC50204F1140000EB8200EE
:102220000161681CC5B22079A842CADC00252AE0F9
:10223000002105EBC50204F5157000EB820041702A
:1022400005EBC50104F5157000F82150002105EBE0
:10225000C50200EB8200017105EBC50204F51570A3
:1022600000EB8200816005EBC50204F5157000EB00
:102270008200C16005EBC50204F5157000EB820019
:102280000161681CC5B22079A842D1DC207C8DF8A0
:10229000000094E80F0003F0BFFD20B1022084F895
:1022A000950401205EE700206074012084F8950405
:1022B000206803F09FFD002054E7000010B586B0B1
:1022C0000446142101A8FEF769F92068B0F1A04F77
:1022D00042D100BF002000902048006840F001007B
:1022E0001E4908600846006800F00100009000BF29
:1022F00000BF4FF4C05001900220029000200390D4
:10230000032004900A20059001A91548FEF7CEFF8E
:1023100000BF1248001D006840F080000F49091DF1
:10232000086000BF002000900C481430006840F4A2
:1023300080400A49143108600846006800F4804073
:10234000009000BF00BF00BF002205214320FFF71F
:102350006FF94320FFF758F906B010BD303802403E
:102360000000024070B504460125E07908B9002557
:1023700006E0E079022801D1012501E0FEF73EFAEE
:102380002946D4F8E00402F0D3FFD4F8E00402F0C8
:1023900079FF70BD10B50446D4F8E00402F0A9FF3F
:1023A00010BD10B50446D4F8E00402F0ADFF10BD36
:1023B00070B504460D4600BF94F89404012801D17D
:1023C000022070BD012084F8940400BF6574294682
:1023D000206804F053FA00BF002084F8940400BF82
:1023E00000BFEEE710B5044604F29C41D4F8E004C7
:1023F00002F0B5FF10BD70B50446256800BF94F823
:102400009404012801D1022070BD012084F89404B5
:1024100000BFE86800F0400030B1607B012803D1C4
:10242000A86B40F48030A863206804F013F920689A
:1024300003F0CEFC00BF002084F8940400BF00BF6E
:10244000E2E7000010B50446D4F8E00402F0E4FF2F
:102450002068D0F8000E40F001002168C1F8000E9D
:10246000E07A28B10348006840F00600014908609E
:1024700010BD000010ED00E070B504460D460CB92B
:10248000012070BD5848006800F00700A84209D23A
:1024900055490D700846006800F00700A84201D0B9
:1024A0000120EEE7207800F0020002281DD12078FC
:1024B00000F00400042805D14C48006840F4E050C6
:1024C0004A490860207800F00800082805D14748EC
:1024D000006840F46040454908604448006820F0C6
:1024E000F000A168084341490860207800F001002D
:1024F000A8B36068012807D13C4808380068C0F3D9
:102500004040B8B90120BCE76068022802D060688A
:10251000032807D1354808380068C0F3406048B93F
:102520000120AEE7314808380068C0F3400008B920
:102530000120A6E72D48006820F0030061680843E9
:102540002A490860FEF7ACFF064609E0FEF7A8FF3F
:10255000801B41F28831884202D9032091E707E0CD
:102560002248006800F00C006168B0EB810FEDD1EB
:102570001D48006800F00700A84209D91A490D70EB
:102580000846006800F00700A84201D0012078E763
:10259000207800F00400042807D11448006820F4D3
:1025A000E050E168084311490860207800F0080015
:1025B000082808D10D48006820F46040216940EAED
:1025C000C1000A49086000F051F808490968C1F3E0
:1025D0000311074A515CC840064908600648006874
:1025E000FEF78EFF00204CE7003C02400838024016
:1025F000CC8600085C010020540100200F220260FC
:102600000D4A126802F0030242600B4A126802F09F
:10261000F0028260084A126802F4E052C260064A80
:10262000126802F46042D2080261044A126802F0A1
:1026300007020A607047000008380240003C024070
:1026400001480068704700005C01002000B5FFF7FA
:10265000F7FF04490968C1F38221034A515CC8406D
:1026600000BD000008380240DC8600082DE9F04774
:10267000002400250026A1462548006800F00C0033
:1026800020B1042805D008283AD105E0DFF884906D
:1026900039E0DFF8849036E01D48001F006800F044
:1026A0003F041B48001F006800F4800078B11A48FE
:1026B0001749091F0968C1F38811A0FB0170014681
:1026C000224600233846FDF74FFE05460EE011482E
:1026D0000F49091F0968C1F38811A0FB0170014669
:1026E000224600233846FDF73FFE05460848001FF6
:1026F0000068C0F30140401C4600B5FBF6F902E05B
:10270000DFF8109000BF00BF4846BDE8F08700002A
:10271000083802400024F40040787D01F8B50446F2
:102720000CB90120F8BD207800F00100002874D019
:10273000F948006800F00C0004280DD0F648006845
:1027400000F00C00082813D1F348001F006800F4C3
:102750008000B0F5800F0BD1EF4808380068C0F357
:102760004040002859D06068002856D10120D9E7A0
:1027700000BF6068B0F5803F08D1E74808380068BE
:1027800040F48030E449083908601EE06068B0F524
:10279000A02F0DD1E0480838006840F48020DE49C1
:1027A000083908600846006840F4803008600CE092
:1027B000D9480838006820F48030D74908390860C3
:1027C0000846006820F48020086000BF606890B16F
:1027D000FEF766FE054606E0FEF762FE401B642833
:1027E00001D903209EE7CC4808380068C0F3404078
:1027F0000028F1D011E0FEF753FE054606E0FEF793
:102800004FFE401B642801D903208BE7C2480838DB
:102810000068C0F340400028F1D1207800F00200A9
:1028200002285FD1BC48006800F00C0058B1BA48DB
:10283000006800F00C0008281CD1B748001F006891
:1028400000F48000B0B9B44808380068C0F3400014
:1028500020B1E068012801D0012063E7AE480838C4
:10286000006820F0F800216940EAC100AA4908394F
:10287000086037E0E06800B30120A8490860FEF76F
:102880000FFE054606E0FEF70BFE401B022801D9AD
:10289000032047E7A04808380068C0F3400000283C
:1028A000F1D09D480838006820F0F800216940EA1E
:1028B000C10099490839086014E000209749086070
:1028C000FEF7EEFD054606E0FEF7EAFD401B022896
:1028D00001D9032026E7904808380068C0F340007B
:1028E0000028F1D1207800F0080008282CD1606978
:1028F000A8B101208A490860FEF7D2FD054606E02E
:10290000FEF7CEFD401B022801D903200AE78248CA
:102910006C300068C0F340000028F1D014E00020C3
:102920007F490860FEF7BCFD054606E0FEF7B8FDEE
:10293000401B022801D90320F4E677486C30006878
:10294000C0F340000028F1D1207800F004000428F2
:1029500070D1002770483830006800F0805090B97E
:1029600000BF002000906C483830006840F0805074
:102970006949383108600846006800F080500090CE
:1029800000BF00BF01276748006800F48070B0B93D
:102990006448006840F4807062490860FEF780FD7A
:1029A000054606E0FEF77CFD401B022801D9032006
:1029B000B8E65C48006800F480700028F2D000BFE0
:1029C000A068012808D154486830006840F0010030
:1029D0005149683108601DE0A06805280DD14E48B6
:1029E0006830006840F004004B49683108600846D0
:1029F000006840F0010008600CE04748683000685B
:102A000020F001004449683108600846006820F061
:102A10000400086000BFA068A8B1FEF741FD0546AC
:102A200009E0FEF73DFD401B41F28831884202D9A2
:102A3000032077E626E0384868300068C0F340009D
:102A40000028EED013E0FEF72BFD054608E0FEF768
:102A500027FD401B41F28831884201D9032061E6FD
:102A60002D4868300068C0F340000028EFD1012FE6
:102A700007D129483830006820F080502649383185
:102A8000086000BFA069002845D02348006800F016
:102A90000C0008285DD0A069022845D100201F49FC
:102AA0000866FEF7FDFC054606E0FEF7F9FC401B54
:102AB000022801D9032035E6174808380068C0F31A
:102AC00040600028F1D1D4E907010843616A40EA77
:102AD00081110122A06AC2EB500041EA00412C2082
:102AE000005D41EA00600C49091F086001200B49A4
:102AF0000866FEF7D5FC054606E0FEF7D1FC401B54
:102B0000022801D903200DE6034808380068C0F305
:102B100040600028F1D049E00838024000004742F8
:102B2000800E474200700040002021490866FEF7F1
:102B3000B7FC054606E0FEF7B3FC401B022801D9AE
:102B40000320EFE51B480068C0F340600028F2D185
:102B50002CE0A069012800D1E4E51648001D0668B4
:102B6000A069012820D006F48001E06981421BD1D0
:102B700006F03F01206A814216D147F6C07030400E
:102B8000616AB0EB811F0FD106F440310122A06AC7
:102B9000C2EB5000B1EB004F06D106F070612C2063
:102BA000005DB1EB006F01D00120BBE50020B9E56D
:102BB00000004742003802407047704710B5044695
:102BC0000CB9012010BD94F83D0028B9002084F80C
:102BD0003C00204600F025F8022084F83D00211D2D
:102BE000206801F04BFA012084F8460000BF84F809
:102BF0003E0001213F200155402001554120015553
:102C000000BF00BF012084F842004320015544204A
:102C100001554520015500BF012084F83D000020EA
:102C2000D0E77047014691F83D00012801D001200E
:102C30007047022081F83D000868C06840F001003C
:102C40000B68D8601A4B086898421BD00868B0F12E
:102C5000804F17D0174B0868984213D0164B08685E
:102C600098420FD0154B086898420BD0144B086857
:102C7000984207D0134B0868984203D0124B08685B
:102C800098420CD10868806800F00702062A0CD030
:102C90000868006840F001000B68186005E00868EB
:102CA000006840F001000B6818600020C0E70000D9
:102CB000000001400004004000080040000C0040FB
:102CC000000401400040014000180040704770B50A
:102CD00004462068C5682068066906F002000228DC
:102CE00019D105F00200022815D1401F21680861A2
:102CF000012020772068806900F0030018B1204689
:102D0000FFF7E4FF05E0204600F097F8204600F0CA
:102D100095F80020207706F00400042819D105F06A
:102D20000400042815D1C0432168086102202077DF
:102D30002068806900F4407018B12046FFF7C6FF94
:102D400005E0204600F079F8204600F077F80020F2
:102D5000207706F00800082819D105F00800082897
:102D600015D1C04321680861042020772068C0691C
:102D700000F0030018B12046FFF7A8FF05E0204649
:102D800000F05BF8204600F059F80020207706F0AC
:102D90001000102819D105F01000102815D1C043DB
:102DA00021680861082020772068C06900F440701D
:102DB00018B12046FFF78AFF05E0204600F03DF8F5
:102DC000204600F03BF80020207706F0010048B1D3
:102DD00005F0010030B16FF0010021680861204664
:102DE00000F02EF806F08000802809D105F0800060
:102DF000802805D1C043216808612046FFF7DCFE2A
:102E000006F04000402809D105F04000402805D1D7
:102E1000C04321680861204600F01EF806F020003B
:102E2000202809D105F02000202805D1C0432168C1
:102E300008612046FFF7C1FE70BD70477047000073
:102E400010B5044603492068884201D1FEF72EFBE5
:102E500010BD000000200040704700BFFEE70000EA
:102E600070B506462D48007C08B9002070BD2B487F
:102E7000007A082801DB0020F8E72849C8684FF0ED
:102E8000FF3105F00BF8254845680CE02878B04282
:102E900008D1224900231A46C868194604F0F8FDF3
:102EA0000020E3E7ED6B002DF0D1402004F032F973
:102EB000044644B9194900231A46C868194604F063
:102EC000E7FD0020D2E726700020607084F834000F
:102ED00084F8350084F83600E062206384F8370017
:102EE00084F838006060A060E0602061182104F17F
:102EF0001400FDF753FB09484068E063074844604D
:102F0000007A401CC1B205480172014600231A46EE
:102F1000C868194604F0BCFD0120A7E7580200204C
:102F200000B58BB000200690079001200890400368
:102F30000190002002904FF4FF10039000200490B5
:102F40000590012009900E200A9001A90248FDF782
:102F500039FD0BB000BD00003805002070B505F04C
:102F60005FF9054621488069281A41F28831884274
:102F700006D902201D49487400201D49087070BD03
:102F80001B48007800F08AF80446ECB194F836004B
:102F9000D0B994F83500B8B9206B281AB0F5967FEF
:102FA00012D92078C82100F031F940B1012084F80D
:102FB000360084F8340005F033F9E06204E094F858
:102FC0003700401C84F8370009480078401C084945
:102FD00008700648007A0978884202DC002004491B
:102FE0000870322004F0A2FA00BFC8E7580200209F
:102FF000D800002070B505461248007C08B90020B2
:1030000070BD1049C8684FF0FF3104F047FF0D480C
:1030100044680CE02078A84208D10A4900231A46E7
:10302000C868194604F034FD2046E9E7E46B002C3B
:10303000F0D1044900231A46C868194604F028FD57
:103040000020DDE75802002010B51349C8684FF092
:10305000FF3104F023FF104844680CE000203434B2
:10306000A0702070E0702071343C182104F114002D
:10307000FDF794FAE46B002CF0D101200649487466
:1030800005F0CEF80449886100231A46C86819463D
:1030900004F0FEFC10BD00005802002070B505468B
:1030A0001148007C18B11048007AA84201DC0020C9
:1030B00070BD0D49C8684FF0FF3104F0EFFE0A48BB
:1030C0004468002002E0E46B411CC8B2A84201DA67
:1030D000002CF8D1044900231A46C868194604F0A8
:1030E000D7FC2046E4E70000580200200148007A9F
:1030F000704700005802002070B500250D49C868CF
:10310000691E04F0CBFE0B48446808E094F83400D4
:1031100020B194F8360008B1681CC5B2E46B002CED
:10312000F4D1044900231A46C868194604F0B0FCDB
:10313000284670BD580200200148407C70470000BE
:10314000580200202DE9F0478046894616461D4664
:10315000089FC6F3072003282ED1022F19DB2878F9
:10316000A52816D16878A52813D14046FFF742FF5D
:1031700004466CB103201C3404F81B0C002060765C
:10318000207701202076A07605F04AF820611C3CCB
:1031900012E0022F10DB28785A280DD168785A28BF
:1031A0000AD14046FFF726FF044624B1052060708F
:1031B000002084F8350000BFBDE8F08710B500227C
:1031C0001421084604F0EBFB0F490860002048601A
:1031D00000210D480172012004F0D0FB0A49C860AB
:1031E00001200874002048748874486188611020A8
:1031F000FFF736FE1020FFF7FDFE04461CB105F078
:103200000FF8C938206310BD580200202DE9F041A5
:1032100080460E464046FFF7EDFE044614B90020F6
:10322000BDE8F08194F8350008B10020F8E704F01B
:10323000F7FF216B471AC82F01D20020F0E70023C7
:103240001A460121404600F0C5F908B90020E7E719
:1032500004F0E6FF054617E000F0C2F894F83500E8
:1032600078B96078032801D10120D9E76078062871
:1032700005D06078052802D06078042801D10020AC
:10328000CEE70A2004F052F904F0CAFF401BB04216
:10329000E2D3002084F83500042060700020BFE7EE
:1032A00070B5044604B970BD94F83500002857D1B4
:1032B00004F0B6FF054694F8340010B194F83600D7
:1032C00038BB206B281AB0F5167F48D920784FF408
:1032D0009671FFF79BFF40B1012084F8360084F817
:1032E000340004F09DFFE06239E014F8370F401C11
:1032F00020706078401C60706078373C0A282EDDB2
:10330000002084F8340084F8360000212020015584
:1033100025E0206B281AB0F5967F20D320784FF453
:103320009672002100F0E8F8064636B1002084F8D5
:10333000380004F075FFE06210E014F8370F401C0D
:1033400020706078401C60706078373C052805DD8F
:10335000002084F8340000212020015500BF00BF68
:1033600000BFA0E770B504460D4626781B48006DE7
:10337000401C1A49086520680866207C81F86400B2
:103380002069082801D9082000E020690246294662
:1033900012486530FDF78BF82088C0F3072003281A
:1033A00005D10E48406D401C0C4948650FE020884F
:1033B000C0F30720022805D10848806D401C07494A
:1033C000886504E00548C06D401C0449C865227C3E
:1033D0002946206800F0D6F870BD00007402002075
:1033E00070B586B078E00198C0F3072003280BD1B0
:1033F0009DF8110000909DF808000DF109033C496B
:10340000019AFFF79FFE67E00198C0F307200228AA
:1034100062D19DF80800FFF7EDFD0446002C5AD05C
:103420009DF81100012856DB9DF81150606A401C80
:103430006062002D4EDD00262020005D50B1082D79
:1034400008DC2A460DF1090104F11400FDF703F828
:1034500000B10126082D01DD082000E028460246C3
:103460000DF1090104F11400FDF721F80599E1615E
:1034700001212020015556B92120005DFF2809DADD
:103480002120005D401CC1B22120015502E0012134
:10349000212001559DF80800207103216171E5711B
:1034A000059921610121A171002D06DD2A460DF14A
:1034B000090104F10800FCF7FAFF059844F82C0F05
:1034C00001202072002060720120A0720020E072B2
:1034D0002C3C00BF00BF00BF06490022086801A9BC
:1034E00004F028FC01283FF47EAF06B070BD000058
:1034F00038050020580200202DE9F04781460D468E
:1035000017464846FFF776FD044614B90020BDE88B
:10351000F08794F8350008B10020F8E704F080FE49
:10352000216BA0EB0108B8F1C80F01D20020EEE733
:1035300000231A460321484600F04CF808B9002041
:10354000E5E704F06DFE06460FE0FFF749FF94F84B
:10355000350038B925B1E079002801DD207A2870DE
:103560000120D4E70A2003F0E1FF04F059FE801B9C
:10357000B842EAD3002084F83500042060700020AF
:10358000C5E7000070B586B004460E4615460194A6
:10359000E0B28DF80800082D01DD082000E0284683
:1035A0008DF811009DF8112031460DF10900FCF74E
:1035B0007EFF04F03BFE05900548006830B10449E9
:1035C00000231A46086801A904F036FB06B070BD56
:1035D000580200202DE9F04389B006468846174678
:1035E0001D463046FFF706FD04461CB9002009B011
:1035F000BDE8F08394F8350008B10020F7E7062D08
:1036000001DD0020F3E704F00BFE216BA0EB0109C4
:10361000B9F1C80F01D20020E9E700200090019025
:103620008DF800608DF801803FB1002D05DD2A4640
:1036300039460DF10200FCF73AFF46F48070039022
:1036400000200490059006900820079000208DF837
:103650002000012084F83500607002AB6A4603A99F
:103660000848FDF70AF930B1002084F8350006203B
:1036700060700020BBE704F0D3FD2063022060707F
:103680000120B4E73805002010B5FFF749FC0448D5
:10369000FDF7C1FD0F210248FDF7DAF810BD00006B
:1036A000380500201CB50748006850B905480321BB
:1036B00000234FF48062CDE9001003A1054804F017
:1036C0000FFD1CBDD00000204952486F7374546137
:1036D000736B0000D936000886B001206849487431
:1036E00004F09EFD6649886100208874486100BF2F
:1036F00078E00198C0F3072003280BD19DF8110052
:1037000000909DF808000DF109035E49019AFFF74A
:1037100019FD67E00198C0F30720022862D19DF8E7
:103720000800FFF767FC0446002C5AD09DF81100F2
:10373000012856DB9DF81150606A401C6062002D24
:103740004EDD00262020005D50B1082D08DC2A4601
:103750000DF1090104F11400FCF77DFE00B1012612
:10376000082D01DD082000E0284602460DF1090180
:1037700004F11400FCF79BFE0599E1610121202072
:10378000015556B92120005DFF2809DA2120005D8E
:10379000401CC1B22120015502E001212120015528
:1037A0009DF80800207103216171E571059921617F
:1037B0000121A171002D06DD2A460DF1090104F158
:1037C0000800FCF774FE059844F82C0F01202072C5
:1037D000002060720120A0720020E0722C3C00BF2B
:1037E00000BF00BF26490A22086801A904F0A2FA16
:1037F00001283FF47EAF2248407C012804D00228F3
:1038000005D003282FD12AE0FFF7A8FB33E004F00E
:1038100007FD04461A484069201AB0F5967F1AD36E
:10382000174844610146887CFFF738FC054615B10E
:103830002846FFF735FD1248807C401C10498874EB
:103840000846817C007A814204DB00200C498874A0
:1038500000F01AF802E00A2003F068FE0BE0642092
:1038600003F064FE07E001200549487404F0D8FC29
:103870000349886100BF00BF0A2003F057FE37E705
:10388000580200203805002070B504F0C9FC054638
:103890001749C8684FF0FF3104F000FB1448446832
:1038A0001BE094F8340058B1E06A281A40F6B831A9
:1038B000884205D9002084F83400002120200155D9
:1038C0002020005D40B1E069281A40F2DC518842B6
:1038D00002D9002120200155E46B002CE1D10449DC
:1038E00000231A46C868194604F0D2F870BD0000DB
:1038F000580200201CB50748006848B90548042153
:103900000023CA01CDE9001003A1074804F0E8FB39
:103910001CBD0000D400002049525F546573745FE1
:103920005461736B000000002D39000888B0002638
:10393000FFF7AAFE642003F0F9FDFFF73FFC10201B
:10394000FFF78EFA642003F0F1FDFFF7ABFE4FF4B2
:103950000470029000200390049005908DF81C00E4
:1039600000BF4C488069401C4A498861FFF7E4FB6E
:1039700048490877FFF7C0FB46494877FFF7B6FB91
:10398000444988771020FFF735FB044654B394F878
:10399000360008B1012000E000203E4981F82000F7
:1039A00094F8340008B1012100E00021394880F882
:1039B000211094F8350008B1012100E000213548BC
:1039C00080F8221094F8381080F82310616A416260
:1039D000E16A81622020005D20B12E48D4E9051201
:1039E000C0E902122B48007F022840D12948407FBD
:1039F00001283CDB04F014FC0546A81BB0F57A7FD7
:103A000034D32E462348007E224908700846008B96
:103A1000000A487008468078401C8870DD20C87015
:103A2000EE200871FF204871112088712220C87192
:103A30000820069001AB0A4602A91748FCF71DFFB3
:103A400060B91448806B401C12498863012081F8DA
:103A50004C0004F0E5FB0F49486107E00D48C06BDE
:103A6000401C0C49C863002081F84C0000BF094885
:103A700080696421B0FBF1F201FB120028B905480E
:103A8000007F012801D1FFF7DFFA4FF4FA7003F04D
:103A90004DFD66E7740200203805002030B50B4666
:103AA000002100BF16E00A24B4EB107F05D93024B2
:103AB00004EB107403F8114005E0412404EB10748A
:103AC0000A3C03F81140000100254C00641C1D5500
:103AD0004C1CE1B29142E6DB30BD000010B50E484F
:103AE0000E4908600320486000210C488160C160D5
:103AF0004FF4A02101614FF4C00141610021017622
:103B000041768176C17601774177FDF7DDF908B11D
:103B1000FCF774FE10BD0000006400403805002072
:103B200010B50E480E4908600320486000210C487B
:103B30008160C1604FF4A02101614FF4C001416177
:103B40000021017641768176C17601774177FDF7D4
:103B5000BBF908B1FCF752FE10BD00000068004040
:103B60006005002000B587B01C2206496846FCF7B6
:103B7000E3FC0021684602F082FF0349086007B0B9
:103B800000BD0000B0860008E400002008B500BFBA
:103B9000002000901548006840F08000134908603C
:103BA0000846006800F08000009000BF00BF00BF22
:103BB000002000900846006840F0010008600846B8
:103BC000006800F00100009000BF00BF00BF0020AF
:103BD00000900846006840F002000860084600684F
:103BE00000F00200009000BF00BF08BD3038024066
:103BF00010B500220D490E4801F00DF908B1FCF78F
:103C0000FDFD0C490A4801F048FC08B1FCF7F6FD3F
:103C10000949074800F032FD08B1FCF7EFFD044800
:103C200001F03EFD08B1FCF7E9FD10BDEC000020FD
:103C3000D0050020D80100203C01002000BFFEE795
:103C400000BFFEE710B50248FDF711FF10BD0000F0
:103C5000AC1A00202DE9F04704460D462668374689
:103C6000D6F8408007F5306000EB4510D0F808909A
:103C7000104880450BD909F40040B0F5004F06D13B
:103C80004FF4004107F5306000EB4510816020469D
:103C9000FEF7A8FB0748804508D9A079012805D17F
:103CA00004F29C420121206802F0B2F90020BDE834
:103CB000F08700000A30544F2DE9F04705460C46C6
:103CC000D5F800904E46D9F840A006F5306000EBDC
:103CD0004410D0F80880A879012855D108F00800D0
:103CE00008280FD1434882450BD908F40040B0F5AD
:103CF000004F7BD14FF4004106F5306000EB4410DB
:103D0000816073E008F02000202806D1202106F50C
:103D1000306000EB4410816068E008F02800002863
:103D200064D1344882450CD908F40040B0F5004F06
:103D300007D14FF4004106F5306000EB441081607C
:103D400054E004EBC40105F5157000EB810706F59E
:103D5000306000EB4410396A0069C0F31200081AA1
:103D6000786164B9386930B905F29C42012128684C
:103D700002F04EF903E07969F8680844F860E1B2AE
:103D80002846FDF7EBFC31E01B4882451BD108F4C7
:103D90000040B0F5004F07D14FF4004106F5306008
:103DA00000EB4410816021E008F02000202805D1BC
:103DB000202106F5306000EB44108160E1B2284616
:103DC000FDF7CCFC12E06CB904EBC40105F51570ED
:103DD00000EB8100006928B905F29C4200212868A7
:103DE00002F016F9E1B22846FDF7B8FC0020BDE864
:103DF000F08700000A30544F0A31544F2DE9F84F34
:103E000007460E46D7F80090C84606EBC60107F1F4
:103E1000140000EB8104D4E90410884202D9012087
:103E2000BDE8F88FD4E90401451AA068A84200D281
:103E3000A568E81C4FEA900A17E0D4E90401451A86
:103E4000A068A84200D2A568E81C4FEA900AB87999
:103E5000ABB2F2B200904846E16802F0A1FDE06822
:103E60002844E06060692844606108F5106000EB58
:103E70004610806980B2504506D3D4E904108842C8
:103E800002D220690028D8D1D4E9040188420ED892
:103E900006F00F01012000FA01FB40F6340050F853
:103EA000080020EA0B0040F6340141F80800002029
:103EB000B6E71CB504460020009001904FF0407218
:103EC000A06842EA0020626840EA02016A46204691
:103ED00000F008F81CBD10B501604260FD2484604C
:103EE000037310BD70B588B004460D461646002019
:103EF000029003950420049000200590082006906D
:103F000000208DF81C0001AB324602A92068FCF7A6
:103F1000B4FC08B070BD7CB504460D46002000908E
:103F2000019005208DF8000070208DF801008DF8BB
:103F300004504FF09052A06842EA0020626840EAC4
:103F400002016A462046FFF7CDFF7CBD30B5014631
:103F50000A461378521C147843EA042030BDFFF758
:103F600047FE00F0FBF800BF012002F077FDFBE701
:103F700010B500BF502080F31188BFF34F8FBFF3FF
:103F80006F8F00BF04F05CF918B14FF08050044906
:103F9000086000BF002080F3118800BF10BD000042
:103FA00004ED00E000B593B0302107A8FCF7F6FA65
:103FB000142102A8FCF7F2FA00BF00200190244867
:103FC000006840F08050224908600846006800F010
:103FD0008050019000BF00BF00BF002001901D482D
:103FE000006840F480401B4908600846006800F4FF
:103FF0008040019000BF00BF01200790000408909E
:1040000002200D9041050E9119210F914FF4A871D6
:104010001091022111910721129107A8FEF77EFB52
:1040200008B1FCF7EBFB0F20029002200390002068
:1040300004904FF4A05005904FF480500690052155
:1040400002A8FEF719FA08B1FCF7D8FB13B000BDBF
:1040500040380240007000400348006840F470009F
:10406000014908607047000088ED00E010B5024883
:10407000FEF72DFE10BD00008805002010B5026877
:104080002B4B98420ED0B0F1804F0BD0294B984269
:1040900008D0294B984205D0284B984202D0284B93
:1040A000984203D122F070024B681A43204B984289
:1040B00020D0B0F1804F1DD01E4B98421AD01E4B1D
:1040C000984217D01D4B984214D01D4B984211D0E6
:1040D0001C4B98420ED01C4B98420BD01B4B984265
:1040E00008D01B4B984205D01A4B984202D01A4B6D
:1040F000984203D122F44072CB681A4322F0800325
:104100004C6943EA04028B68C3620B688362084B04
:10411000984202D00A4B984201D10B6903630368AD
:1041200043F00403036001234361026010BD0000FB
:10413000000001400004004000080040000C004066
:10414000000401400040014000440140004801409B
:1041500000180040001C00400020004010B5194825
:10416000FCF720FB1848FCF71DFB1648FDF753F839
:104170001548FDF750F802211248FCF769FB1021A1
:104180001148FCF765FB01210E48FCF761FB01219A
:104190000D48FCF75DFBFFF711F802231A460A49A8
:1041A0000A48FFF798FE00210848FFF7B4FE0748C9
:1041B000FFF77FFE4FF4FA6003F0B8F9FFF79AFBC0
:1041C00010BD000038050020600500201800002008
:1041D0002DE9F04104460D46D4F8C87204F530705C
:1041E000D4F8D41250F8210010B90320BDE8F081B2
:1041F00004F53070D4F8D41250F8216005F00F00A7
:1042000000EB800104F1140050F8210028B305F000
:104210000F0000EB800104F1140050F8211005F0AC
:104220000F0000EBC00207F1140000EB8200806871
:10423000B1FBF0F200FB121078B9002105F00F007D
:1042400000EB800204F1140040F8221000231A460B
:104250002946204601F0EEF817E00020C6F81402C7
:1042600004F53170D4F8D41250F82100006960B11F
:10427000D6F8080204F53171D4F8D42251F822108E
:104280002A460B6906F5047198470020AEE770B521
:1042900004460E4604F53070D4F8D41250F821507C
:1042A000D4F8D41250F8210008B9032070BD31466B
:1042B000204600F016FFC5F80C02D5F8040204F5FC
:1042C0003171D4F8D43251F82310CA6805F503715E
:1042D00090470020EAE7000070B504460D463048DC
:1042E0000178204600F0C7FD00212D48007800F03D
:1042F0000F0000EB800204F1140000EB8200C17398
:1043000028480178204600F0B6FD002125480078B5
:1043100000F00F0000EB800204F5AA7000EB8200B1
:10432000C17321480178204600F0A5FD00211E48F8
:10433000007800F00F0000EB800204F1140000EBA5
:104340008200C1731848007800F00F0000EB800273
:1043500004F1140000EB8200816004F53070D4F8A1
:10436000D41250F82100C8B104F53171D4F8D42228
:1043700051F822104868804704F53071D4F8D422EF
:1043800051F8220001F082FB002104F53070D4F8CE
:10439000D42240F822100020C4F8BC02002070BDD6
:1043A00053020020540200205502002070B504463C
:1043B00004F53070D4F8D41250F821500DB9032010
:1043C00070BD04F53170D4F8D41250F8210098B1C2
:1043D00095F80002FF280FD095F8012295F8000209
:1043E00004F53171D4F8D46251F826108B6829464F
:1043F0009847FF2085F800020020E1E701460A20E7
:104400000880014870470000CC0100202DE9F041F0
:10441000044682210D4800F04AFC054601210B4864
:1044200000F045FC06468121084800F040FC0746A4
:104430000DB11020A8710EB14020B0800FB1402006
:10444000B880432020800148BDE8F08110020020A0
:104450002DE9F041044682210E4800F028FC054673
:1044600001210C4800F023FC06468121094800F098
:104470001EFC07460DB11020A87116B14FF4007054
:10448000B08017B14FF40070B880432020800148FD
:10449000BDE8F081100200202DE9F04104468221A0
:1044A0000D4800F004FC054601210B4800F0FFFB1D
:1044B00006468121084800F0FAFB07460DB110209E
:1044C000A8710EB14020B0800FB14020B8804320C9
:1044D00020800148BDE8F0811002002070B504463C
:1044E0000E464FF4077001F0D3FA054645B9002196
:1044F00004F53070D4F8D42240F82210022070BDA8
:104500004FF407712846FCF749F804F53070D4F8E9
:10451000D41240F82150D4F8D41250F82100C4F835
:10452000BC02207C98BB4FF40073022250480178F3
:10453000204600F077FE01214D48007800F00F0082
:1045400000EB800204F1140000EB8200C1734B0207
:10455000022248480178204600F064FE01214548C7
:10456000007800F00F0000EB800204F5AA7000EB69
:104570008200C17310214048007800F00F0000EB6A
:10458000800204F1140000EB8200816032E0FFE75A
:104590004023022236480178204600F043FE0121E4
:1045A0003348007800F00F0000EB800204F11400A3
:1045B00000EB8200C173402302222E48017820467E
:1045C00000F030FE01212B48007800F00F0000EBD6
:1045D000800204F5AA7000EB8200C1731021264806
:1045E000007800F00F0000EB800204F1140000EBF3
:1045F00082008160082303221F480178204600F0D2
:1046000011FE01211C48007800F00F0000EB800231
:1046100004F1140000EB8200C1730020C5F804020D
:1046200004F53171D4F8D42251F82210086880477B
:104630000020C5F81402C5F81802D5F8040208B91C
:1046400002205CE7207C48B94FF4007309480178E8
:104650002046D5F8042200F0FDFD07E04023054880
:1046600001782046D5F8042200F0F4FD002046E74A
:10467000530200205402002055020020024609B9CE
:104680000320704702F53170D2F8D43240F823107D
:104690000020F6E710B5024602F53070D2F8D44299
:1046A00050F824300BB9032010BDC3F804120020C9
:1046B000FAE730B503460C4603F53070D3F8D45210
:1046C00050F8251009B9032030BDC1F80842C1F8DF
:1046D00010220020F8E72DE9FC4105460C4605F5BF
:1046E0003070D5F8D41250F821600020019000906D
:1046F000804616B90320BDE8FC81207800F06000F8
:1047000000283DD020287CD1E08868B3207800F0D4
:104710008000B8B1E288607805F53171D5F8D4C26F
:1047200051F82C108B6831469847E088072801D94A
:10473000072000E0E08807463A463146284600F068
:10474000E5F81CE0607886F80002E088402801D295
:10475000E08800E0402086F8010296F80122314608
:10476000284600F0AFF80AE0607805F53171D5F819
:10477000D42251F8221000228B682146984747E046
:10478000607830B1012832D00A2813D00B282FD1FD
:1047900021E095F89C02032805D1022269462846AB
:1047A00000F0B4F805E02146284600F07FF84FF00D
:1047B000030824E095F89C02032805D1012201A9F1
:1047C000284600F0A3F805E02146284600F06EF8E0
:1047D0004FF0030813E095F89C02032805D021460A
:1047E000284600F063F84FF0030808E009E006E00F
:1047F0002146284600F05AF84FF0030800BF00BFDA
:1048000006E02146284600F051F84FF0030800BFAB
:1048100000BF40466FE770B504460D460026D4F849
:10482000B802294642682046904700B10326304628
:1048300070BD70B504460D4694F89C02012804D062
:10484000022803D003280CD101E000BF00BF688814
:10485000012805D10020C4F8A402204600F068F821
:1048600004E02946204600F021F800BF00BF70BDDB
:1048700002460020704702460020704770B5064689
:104880000C4615462B4622460021304600F0E2FC3D
:10489000002070BD70B506460C4615462B462246D4
:1048A0000021304600F0C6FD002070BD70B5044602
:1048B0000D468021204600F08DFD0021204600F0AD
:1048C00089FD70BD70B504460E4615460320C4F838
:1048D0009402C4F854514FF4B27006514FF4AC70C6
:1048E00005512B4632460021204600F0B3FC002043
:1048F00070BD10B504460520C4F8940200231A4682
:104900001946204600F0A6FC002010BD70B50446F4
:104910000E4615460220C4F8940265616662A561E0
:104920002B4632460021204600F084FD002070BD59
:1049300010B504460420C4F8940200231A46194610
:10494000204600F077FD002010BD000070B5054640
:104950000C462DB92246064906A000F012FA04E0E2
:104960002246034903A000F00CFA014870BD000084
:10497000AC08002043444320436F6E666967000023
:1049800002461220088001487047000008010020FC
:1049900070B505460C462DB92246064906A000F022
:1049A000F0F904E02246034903A000F0EAF90148C7
:1049B00070BD0000AC08002043444320496E74657C
:1049C00072666163650000000246042008800148A9
:1049D000704700001C01002070B505460C462246B9
:1049E000024903A000F0CDF9004870BDAC080020DA
:1049F00053544D6963726F656C656374726F6E6951
:104A00006373000070B505460C462DB92246064971
:104A100006A000F0B6F904E02246034903A000F026
:104A2000B0F9014870BD0000AC08002053544D336C
:104A300032205669727475616C20436F6D506F72CD
:104A40007400000070B505460C461A202080FBF764
:104A5000E5FE014870BD00002001002070B504464D
:104A60000D46E888012804D029462046FFF71EFF9E
:104A70001EE094F89C02012804D0022803D00328E9
:104A800010D109E000BF0020A060012204F108015C
:104A90002046FFF73BFF0AE00122211D2046FFF7D9
:104AA00035FF04E029462046FFF700FF00BF00BFA6
:104AB00070BDF8B504460E46002000900027002582
:104AC00070880012082875D2DFE800F0C7040C20B7
:104AD000C7C7A5B5207CD4F8B4120A6869469047C8
:104AE0000746C1E0207C40B9D4F8B802816A684624
:104AF000884707460220787007E0D4F8B802C16AF8
:104B000068468847074602207870ADE0B0780628EE
:104B100078D2DFE800F00316293C5063D4F8B402E1
:104B2000406838B1207CD4F8B4124A68694690478E
:104B3000074605E031462046FFF7B8FE681CC5B2BF
:104B400067E0D4F8B402806838B1207CD4F8B4129D
:104B50008A6869469047074605E031462046FFF7D8
:104B6000A5FE681CC5B254E0D4F8B402C06838B1E0
:104B7000207CD4F8B412CA6869469047074605E01D
:104B800031462046FFF792FE681CC5B241E0D4F8DA
:104B9000B402006938B1207CD4F8B4120A696946BD
:104BA0009047074605E031462046FFF77FFE681C28
:104BB000C5B22EE051E0D4F8B402406938B1207C8F
:104BC000D4F8B4124A6969469047074605E0314671
:104BD0002046FFF76BFE681CC5B21AE0D4F8B40299
:104BE000806940B1207CD4F8B4128A696946904744
:104BF000074606E006E031462046FFF757FE681CF0
:104C0000C5B206E031462046FFF750FE681CC5B22B
:104C100000BF00BF28E0207C30B9D4F8B802416B57
:104C200068468847074605E031462046FFF73EFEC6
:104C3000681CC5B218E0207C40B9D4F8B802016BFA
:104C40006846884707460720787005E031462046C9
:104C5000FFF72CFE681CC5B206E031462046FFF780
:104C600025FE681CC5B200BF00BF05B1F8BDF088C5
:104C7000C0B1BDF8000080B1F088BDF800108842D6
:104C800002DDBDF8000000E0F0880090BDF80020D3
:104C900039462046FFF73AFE07E031462046FFF747
:104CA00005FE02E02046FFF743FE00BFDEE72DE9E8
:104CB000F84105460F462C462E464FF000087088F6
:104CC0003178884218DD307800900FE06946204640
:104CD00000F020F804466078052807D1A04698F82F
:104CE0000200B84200D106E04FF000087088BDF81D
:104CF00000108842EADC00BF4046BDE8F88101466A
:104D000000200A4602E0431CD8B2521C1378002B44
:104D1000F9D1704710B5024610460B880478234439
:104D20000B800378981810BD70B504460D4694F8B2
:104D30009C02012804D0022803D003281AD101E0E4
:104D400000BF00BFE888022804D029462046FFF7AC
:104D5000ADFD14E00120E060D4F8A40218B1E068D1
:104D600040F00200E060022204F10C012046FFF74F
:104D7000CDFD04E029462046FFF798FD00BF00BFA7
:104D800070BD2DE9F04107460D46904600240FB94D
:104D9000BDE8F0813E463046FFF7B1FF022101EB4E
:104DA0004000B0F5007F01D9080204E03046FFF76B
:104DB000A6FF4000801CA8F8000098F800002855C5
:104DC000601CC4B203202855601CC4B208E03078CF
:104DD0002855761C601CC4B200202855601CC4B243
:104DE00030780028F3D100BFD2E70146002031B16E
:104DF000012906D0022906D0032908D105E00020A8
:104E000007E0032005E0012003E0032001E0032088
:104E100000BF00BF70472DE9F04104460D4616461D
:104E200014B90320BDE8F0810020C4F8B802C4F82A
:104E3000C402C4F8D0020DB1C4F8B452012084F801
:104E40009C022670204600F055F907463846E9E7EF
:104E50002DE9F04104460D46002600272946D4F8E6
:104E6000C802FCF7E8FC06463046FFF7BEFF0746DF
:104E70003846BDE8F0812DE9F04104460D46002694
:104E800000272946D4F8C802FCF7A0FC06463046A5
:104E9000FFF7ABFF07463846BDE8F0812DE9F04744
:104EA00005460F469146002F5AD105F11404D5F856
:104EB000940202284AD1A1896068884213D9A18945
:104EC0006068401A6060A189206908442061284612
:104ED00062682169FFF7DEFC00231A46194628465E
:104EE00000F0B8F932E0A0896168884217D1A18941
:104EF0002068884213D32068D5F8981288420ED2D1
:104F0000002211462846FFF7C5FC0020C5F898028C
:104F100000231A461946284600F09CF916E095F839
:104F20009C0203280BD1D5F8B802C06838B1002024
:104F3000C5F8D402D5F8B802C16828468847802150
:104F4000284600F047FA2846FFF7D3FC95F8A00260
:104F500050B3284600F0C5FA002085F8A00223E0EF
:104F600047F080012846FFF783FC0646FF2E1BD042
:104F7000D6B995F89C02032816D105F52E7050F885
:104F80002600406980B1C5F8D46205F52E7050F84E
:104F9000260039464269284690478046B8F1000FFE
:104FA00002D04046BDE8F0870020FBE72DE9F0473E
:104FB00005460F4691464FF00008002F55D105F5E4
:104FC000AA76D5F89402032873D1B1897068884213
:104FD00014D9B1897068401A7060B1893069084489
:104FE0003061B3897068984201D9706800E0B08977
:104FF000024628463169FFF741FC5AE095F8AA02BB
:1050000000F01F0020B1012804D0022812D109E0CD
:10501000002411E040F2AE20415D2846FFF72BFC52
:10502000044609E040F2AE20415D2846FFF720FC2F
:10503000044601E0002400BF00BF94B995F89C022B
:1050400003280ED105F52E7050F82400006940B1F8
:10505000C5F8D44205F52E7050F8240001692846A1
:1050600088472846FFF764FC23E007F07F012846C5
:10507000FFF7FEFB0446FF2C1BD0D4B995F89C0229
:10508000032810D105F52E7050F82400806950B126
:10509000C5F8D44205F52E7050F8240039468269CF
:1050A000284690478046B8F1000F02D04046BDE840
:1050B000F0870020FBE701460020704770B50446EA
:1050C0000025012084F89C02D4F8B80238B1217977
:1050D000D4F8B80242682046904700B1032528461C
:1050E00070BD70B504460D462946D4F8C802FCF7D9
:1050F000E0FB70BD10B50446207800282AD1164880
:10510000C0F8E044C4F8C8024FF0A040124908605B
:105110000420087102211048C1710021817102210F
:10512000417200218172C17201738173C173FDF7F5
:1051300015F808B1FBF762FB80210748FCF7CBFAB2
:10514000402200210448FCF7CBFA802201210248CA
:10515000FCF7C6FA002010BDAC1A002010B50246BC
:10516000D2F8C83201F08000802809D101F07F0018
:1051700000EBC00403F1140000EB8400807810BD44
:1051800001F07F0000EBC00403F5157000EB840014
:105190008078F4E770B504460D4604F52E70D4F817
:1051A000D41250F8210008B9032070BD94F89C0275
:1051B000032811D104F52E70D4F8D41250F8210030
:1051C000006A48B104F52E70D4F8D41250F82100CA
:1051D0002946026A204690470020E6E770B504465B
:1051E0000D4604F52E70D4F8D41250F8210008B9F9
:1051F000032070BD94F89C02032811D104F52E7091
:10520000D4F8D41250F82100406A48B104F52E7049
:10521000D4F8D41250F821002946426A204690471B
:105220000020E6E72DE9F04704460F4615461E46E6
:105230004FF00008C1462B4632463946D4F8C80222
:10524000FCF742FB80464046FFF7CFFD81464846CB
:10525000BDE8F0872DE9F04704460D4616461F4687
:105260004FF00008C1463B4632462946D4F8C802F2
:10527000FCF771FB80464046FFF7B7FD8146484684
:10528000BDE8F08770B504460025012084F89C0233
:105290000020C4F894026060C4F8A40284F8A0025C
:1052A000D4F8B80258B1D4F8B802406838B12179BE
:1052B000D4F8B80242682046904700B10325402345
:1052C000002211462046FFF7ADFF012140F2631096
:1052D00001554021C01E0153402300228021204659
:1052E000FFF7A0FF012123200155402121842846FA
:1052F00070BD014691F89C02042803D191F89D02EB
:1053000081F89C020020704710B5044694F89C0276
:1053100003280BD1D4F8B80240B1D4F8B802C06960
:1053200020B1D4F8B802C16920468847002010BDDA
:1053300002461174002070472DE9F04104460D46E5
:10534000002600272946D4F8C802FDF731F80646A2
:105350003046FFF74AFD07463846BDE8F08170B594
:1053600004460D46294604F2AA2000F07BF80120ED
:10537000C4F894024FF42C70005BC4F8980294F8BF
:10538000AA0200F01F0020B1012809D0022815D17F
:105390000DE004F2AA21204600F088F9064616E046
:1053A00004F2AA21204600F01AFB06460FE004F2A0
:1053B000AA21204600F0D1F9064608E094F8AA0296
:1053C00000F08001204600F005F8064600BF00BF4F
:1053D000304670BD2DE9F04104460D4600260027F9
:1053E0002946D4F8C802FCF7D9FA06463046FFF73A
:1053F000FCFC07463846BDE8F08170B50446002540
:105400000026D4F8C802FCF7F6FF05462846FFF749
:10541000ECFC0646304670BD014691F89C0204281B
:1054200003D091F89C0281F89D02042081F89C022F
:10543000002070472DE9F04704460D4616461F46EA
:105440004FF00008C1463B4632462946D4F8C80210
:10545000FCF7E9FA80464046FFF7C7FC814648461C
:10546000BDE8F08770B505460E46344620782870B2
:10547000641C20786870641C2046FEF767FD688015
:10548000641C641C2046FEF761FDA880641C641C3B
:105490002046FEF75BFDE88070BD38B504460D463A
:1054A000002000900DB9032038BDC4F8B85204F5AF
:1054B0002E70D4F8D41250F82100C06A50B104F50F
:1054C0002E70D4F8D42250F82200C16A684688476A
:1054D000C4F8D002D4F8D802401CC4F8D802002086
:1054E000E2E701460020704770B504460D46A888E3
:1054F00010BBE88800BB688880281DD2A87800F01F
:105500007F0694F89C02032804D129462046FFF721
:10551000CDF915E084F89E6231462046FFF70CFF76
:105520002046FFF705FA1EB1022084F89C0207E02E
:10553000012084F89C0203E029462046FFF7B6F9D3
:1055400070BD70B504460D460026D4F8B80230B1DF
:10555000D4F8B802294602682046904706463046ED
:1055600070BD000070B504460E460025B0783D4978
:10557000087008460078012805D931462046FFF713
:1055800095F9032070BD94F89C02022802D00328EC
:1055900059D11FE033480078C0B1324800786060CC
:1055A000304801782046FFF7CCFF05463DB1314633
:1055B0002046FFF77BF9022084F89C0209E0204690
:1055C000FFF7B6F9032084F89C0202E02046FFF7BB
:1055D000AFF943E02348007870B9022084F89C02B8
:1055E0002048007860601F4801782046FFF713F9D3
:1055F0002046FFF79DF925E01A490978606888423E
:105600001DD021792046FFF706F916480078606022
:10561000144801782046FFF794FF05465DB13146F6
:105620002046FFF743F921792046FFF7F4F80220DE
:1056300084F89C0206E02046FFF77AF902E0204653
:10564000FFF776F90AE031462046FFF72FF90548C3
:1056500001782046FFF7DFF8032500BF00BF28468A
:1056600090E70000C801002070B505460C46608830
:10567000012805D1C5F8A4022846FFF759F90EE024
:105680006088022807D1A088001285F8A002284669
:10569000FFF74EF903E021462846FFF707F970BDF2
:1056A00010B504462046FFF7A8FE10BD70B50446AD
:1056B0000D460026287800F0600088B1202802D02E
:1056C000402842D100E000BF04F52E70D4F8D41277
:1056D00050F821002946826820469047064639E066
:1056E00068780A282AD2DFE800F01A24291F290A3C
:1056F0000529150F29462046FFF7DBF923E0294647
:105700002046FFF7F1FE1EE029462046FFF72AFF5C
:10571000064618E029462046FFF7A0F913E029467F
:105720002046FFF701FB0EE029462046FFF79CFFCD
:1057300009E029462046FFF77CF804E02946204688
:10574000FFF7B4F800BF00BF04E029462046FFF78A
:10575000ADF800BF00BF304670BD2DE9F0470546EB
:105760000F464FF000093C79387800F06000F8B13E
:10577000202802D040287DD100E000BF21462846E5
:10578000FFF776F80646FF2E11D086B9C5F8D46229
:1057900005F52E7050F82600806840B105F52E7092
:1057A00050F826003946826828469047814612E123
:1057B000787800287AD001282FD003286ED195F868
:1057C0009C02022802D0032820D110E054B1802C82
:1057D00008D021462846FFF7FDFD80212846FFF727
:1057E000F9FD03E039462846FFF760F813E07888B2
:1057F00040B93CB1802C05D0F88818B9214628461C
:10580000FFF7E8FD2846FFF793F804E039462846FD
:10581000FFF74CF800BF00BFD6E095F89C020228C5
:1058200002D003283BD110E054B1802C08D021468F
:105830002846FFF7CFFD80212846FFF7CBFD03E088
:1058400039462846FFF732F82EE0788820BB04F06E
:105850007F0018B121462846FFF7FAFA2846FFF7DD
:1058600067F821462846FFF703F80646FF2E13D0B7
:1058700096B900E0AAE0C5F8D46205F52E7050F89C
:105880002600806840B105F52E7050F82600394694
:10589000826828469047814606E007E08FE0394657
:1058A0002846FFF703F800BF00BF8DE095F89C0283
:1058B000022802D003287BD127E034B1802C04D009
:1058C00039462846FEF7F2FF77E004F08000802892
:1058D00008D104F07F0000EB800105F1140000EB1B
:1058E000810007E004F07F0000EB800105F5AA705D
:1058F00000EB81008046002088F80E00022208F1AB
:105900000E012846FFF702F857E004F080008028D7
:105910000ED104F00F0000EB800105F1140000EB44
:105920008100C07B98B939462846FEF7BFFF44E0A6
:1059300004F00F0000EB800105F5AA7000EB810078
:10594000C07B20B939462846FEF7B0FF35E004F0A9
:105950008000802808D104F07F0000EB800105F171
:10596000140000EB810007E004F07F0000EB8001F1
:1059700005F5AA7000EB810080460CB1802C03D1A4
:10598000002088F80E000CE021462846FFF7E6FBD1
:1059900020B1012088F80E0003E009E0002088F81B
:1059A0000E00022208F10E012846FEF7AFFF04E0C8
:1059B00039462846FEF77AFF00BF00BF04E03946AB
:1059C0002846FEF773FF00BF00BF04E039462846B3
:1059D000FEF76CFF00BF00BF4846BDE8F0872DE929
:1059E000F04105460E460027307800F0600030B1E7
:1059F000202802D0402840D100E000BF00BF95F829
:105A00009C02012804D0022803D003282ED101E0F3
:105A100000BF00BF3079012823D831792846FEF72E
:105A20002AFF0446FF2C14D09CB905F52E7050F8BF
:105A30002400806858B1C5F8D44205F52E7050F89E
:105A400024003146826828469047074602E0032733
:105A500000E00327F08840B93FB92846FEF768FF09
:105A600003E031462846FEF721FF04E03146284690
:105A7000FEF71CFF00BF00BF04E031462846FEF7DA
:105A800015FF00BF00BF3846BDE8F0817047000039
:105A90000146014870470000901F002070B5044681
:105AA0000B4622461978587801282CD140F61C0064
:105AB00080581D7805F00F060125B540ADB228438A
:105AC00040F61C05A85002F5106000EB411000687C
:105AD00000F40040F0BB1889C0F30A001D7940EAC9
